:020000040000FA
:0400000016EF0EF0F9
:100800000020205445534C412056322E30202020C9
:100810002020005363686F6F6C5A6F6E6520323012
:100820004D5048002057454C434F4D452020202037
:1008300020202000205363686F6F6C205A6F6E6514
:10084000200043415554494F4E2121210054455326
:100850004C412056322E300020466F727761726410
:1008600020002057454C434F4D4500205269676892
:100870007420002052656164792000204261636B1E
:1008800020002053746F702000204C656674200097
:010890000067
:100892002B50800B386E2B502B243A6E2AAE54EF1D
:1008A20004F056EF04F059EF04F03A8059EF04F0E7
:1008B2003A50D8B45FEF04F061EF04F078EF04F03F
:1008C2003A28D8A467EF04F069EF04F073EF04F05C
:1008D200000E286E000E296E000E2A6E000E2B6E80
:1008E20073EF04F02A8E000E2B6E82EF04F0000EDE
:1008F200286E000E296E000E2A6E000E2B6E82EFFD
:1009020004F02F50800B396E38503918D8B48CEF60
:1009120004F08EEF04F091EF04F0388C91EF04F0C4
:100922002F502F24396E2EAE99EF04F09BEF04F076
:100932009EEF04F039809EEF04F03950D8B4A4EF52
:1009420004F0A6EF04F0BDEF04F03928D8A4ACEF10
:1009520004F0AEEF04F0B8EF04F0000E2C6E000EBF
:100962002D6E000E2E6E000E2F6EB8EF04F02E8E3E
:10097200000E2F6EC7EF04F0000E2C6E000E2D6ECF
:10098200000E2E6E000E2F6EC7EF04F03A50395C47
:10099200D8B0CEEF04F0D0EF04F0FBEF04F038ACA7
:1009A200D5EF04F0D7EF04F0DBEF04F0800E381A35
:1009B200DBEF04F03AC03BF039C03AF03BC039F00B
:1009C20028C03BF02CC028F03BC02CF029C03BF0E3
:1009D2002DC029F03BC02DF02AC03BF02EC02AF0DA
:1009E2003BC02EF02BC03BF02FC02BF03BC02FF0B2
:1009F200FBEF04F0000E3B6E3A50306E316A301E4F
:100A0200311E304A312A3950326E336A3050322622
:100A12003150332233BE17EF05F0335009E11A0E7D
:100A2200325CD8A017EF05F019EF05F056EF05F08C
:100A3200285029102A102B10D8A422EF05F025EFF8
:100A420005F0010E26EF05F0000E3B6E000E286E3B
:100A5200000E296E000E2A6E000E2B6E39C03AF07F
:100A620061EF05F056EF05F03BA03AEF05F03CEFE1
:100A720005F042EF05F0D8903B3001093B6E46EF9E
:100A820005F0D8903B3246EF05F028A04BEF05F079
:100A92004DEF05F050EF05F03B8E50EF05F02B3493
:100AA2002B322A32293228323A2A39503A5CD8A0DB
:100AB2005DEF05F05FEF05F035EF05F061EF05F052
:100AC20038BC66EF05F068EF05F0B0EF05F03A507C
:100AD200D8A46EEF05F070EF05F07CEF05F0000E84
:100AE200286E000E296E000E2A6E000E2B6E0AEF83
:100AF20007F00AEF07F02C5028262D5029222E50FD
:100B02002A222F502B222BA089EF05F08BEF05F024
:100B120060EF06F03BA090EF05F092EF05F098EF42
:100B220005F0D8903B3001093B6E9CEF05F0D89060
:100B32003B329CEF05F028A0A1EF05F0A3EF05F0F2
:100B4200A6EF05F03B8EA6EF05F02B342B322A32AE
:100B5200293228323A2A60EF06F060EF06F02C5074
:100B6200285C2D5029582E502A582B50800A306E5E
:100B72002F50800A3058D8B0C1EF05F0C3EF05F00E
:100B820001EF06F028C030F029C031F02AC032F05F
:100B92002BC033F0301E311E321E331E302A000E9F
:100BA2003122322233222C503024346E2D50312007
:100BB200356E2E503220366E2F503320376EFF0E98
:100BC2003424286EFF0E3520296EFF0E36202A6E41
:100BD200FF0E37202B6E800E381A3B6C3B50D8A488
:100BE200F5EF05F0F7EF05F009EF06F0010E282604
:100BF200000E29222A222B2209EF06F009EF06F025
:100C02002C50285E2D50295A2E502A5A2F502B5ADA
:100C1200285029102A102B10D8A412EF06F014EF36
:100C220006F055EF06F03B50D8A41AEF06F01CEF81
:100C320006F055EF06F0000E286E000E296E000E2B
:100C42002A6E000E2B6E0AEF07F00AEF07F055EF3F
:100C520006F0D890283629362A362B363BAE34EFAA
:100C620006F036EF06F039EF06F0288039EF06F08D
:100C72003BA03EEF06F040EF06F044EF06F0D880CE
:100C82003B3648EF06F0D8903B3648EF06F03A5034
:100C9200D8B44EEF06F050EF06F055EF06F03A06E4
:100CA20055EF06F055EF06F02AAE5AEF06F05CEF6C
:100CB20006F02AEF06F060EF06F060EF06F0000E95
:100CC200396E3BAE67EF06F069EF06F085EF06F08E
:100CD2003BC030F07F0E3016D8B472EF06F074EFDE
:100CE20006F078EF06F0010E396E85EF06F028A0C7
:100CF2007DEF06F07FEF06F085EF06F0010E396E0C
:100D020085EF06F085EF06F03950D8B48BEF06F088
:100D12008DEF06F0BEEF06F0010E2826000E292206
:100D22002A222B222BA098EF06F09AEF06F0BEEFB4
:100D320006F028C030F029C031F02AC032F02BC0B2
:100D420033F03334333232323132303230C028F081
:100D520031C029F032C02AF033C02BF03A28D8B47F
:100D6200B5EF06F0B7EF06F0BEEF06F03A2ABEEF97
:100D720006F0BEEF06F0BEEF06F03A28D8B4C4EF94
:100D820006F0C6EF06F0D0EF06F03A50D8A4CCEF4A
:100D920006F0CEEF06F0E6EF06F0D0EF06F0000E1A
:100DA200286E000E296E000E2A6E000E2B6E3A502F
:100DB200D8A4DEEF06F0E0EF06F0E6EF06F0000E54
:100DC200386EE6EF06F0E6EF06F03AA0EBEF06F03B
:100DD200EDEF06F0F0EF06F02A8EF3EF06F02A9E12
:100DE200F3EF06F0D8903A302B6E38AEFBEF06F0F8
:100DF200FDEF06F000EF07F02B8E00EF07F028C0A2
:100E020028F029C029F02AC02AF02BC02BF00AEFC3
:100E120007F012001250800B1F6E12501224266E21
:100E220011AE16EF07F018EF07F01BEF07F0268060
:100E32001BEF07F02650D8B421EF07F023EF07F09D
:100E42003AEF07F02628D8A429EF07F02BEF07F096
:100E520035EF07F0000E0F6E000E106E000E116ED1
:100E6200000E126E35EF07F0118E000E126E44EF77
:100E720007F0000E0F6E000E106E000E116E000EC7
:100E8200126E44EF07F01650800B1F1A16501624EC
:100E9200276E15AE4FEF07F051EF07F054EF07F052
:100EA200278054EF07F02750D8B45AEF07F05CEFD1
:100EB20007F073EF07F02728D8A462EF07F064EF7A
:100EC20007F06EEF07F0000E136E000E146E000EA8
:100ED200156E000E166E6EEF07F0158E000E166E72
:100EE2007DEF07F0000E136E000E146E000E156EED
:100EF200000E166E7DEF07F0135014101510161029
:100F0200D8A486EF07F088EF07F0A2EF07F0000EF3
:100F12000F6E000E106E000E116E000E126E800E1D
:100F220011127F0E12121F5012120FC00FF010C0BA
:100F320010F011C011F012C012F01AEF09F01AEFFE
:100F420009F02650D8A4A8EF07F0AAEF07F0BEEFE9
:100F520007F0000E0F6E000E106E000E116E000EE6
:100F6200126E0FC00FF010C010F011C011F012C0BD
:100F720012F01AEF09F01AEF09F02750176E186AEB
:100F8200171E181E174A182A2650196E1A6A175069
:100F9200192618501A227F0E1924206E000E1A20CC
:100FA200216E0FC01BF010C01CF011C01DF012C04A
:100FB2001EF0000E0F6E000E106E000E116E000E6F
:100FC200126E000E226E000E236E000E246E000EB4
:100FD200256E000E276E2AEF08F02750D8B4F4EFE2
:100FE20007F0F6EF07F00FEF08F0D8901B361C362B
:100FF2001D361E36D8900F3610361136123625AEF3
:1010020005EF08F007EF08F008EF08F00F80D8901E
:1010120022362336243625360FEF08F013501B5C98
:1010220014501C5815501D5816501E58D8A01CEFAD
:1010320008F01EEF08F029EF08F0258C13501B5E14
:1010420014501C5A15501D5A16501E5A29EF08F0FA
:10105200272A190E276430EF08F032EF08F0EEEF7E
:1010620007F034EF08F01B501C101D101E10D8B4EE
:101072003DEF08F03FEF08F05BEF08F022805BEFF6
:1010820008F05BEF08F0D8900F36103611361236A2
:1010920025AE4EEF08F050EF08F051EF08F00F8048
:1010A200D89022362336243625362006D8A02106AB
:1010B2005BEF08F011AE60EF08F062EF08F044EF6A
:1010C20008F064EF08F0000E276E25AE6BEF08F013
:1010D2006DEF08F095EF08F0FF0E2214176EFF0E69
:1010E2002314186EFF0E2414196E7F0E25141A6E27
:1010F2001750181019101A10D8B482EF08F084EFA4
:1011020008F088EF08F0010E276E95EF08F00FA0A7
:101112008DEF08F08FEF08F095EF08F0010E276EC3
:1011220095EF08F095EF08F02750D8B49BEF08F040
:101132009DEF08F0C5EF08F0010E0F26000E1022F9
:101142001122122212A0A8EF08F0AAEF08F0C5EFB0
:1011520008F00FC017F010C018F011C019F012C03B
:101162001AF01A341A3219321832173217C00FF025
:1011720018C010F019C011F01AC012F0204A212A2A
:10118200C5EF08F0C5EF08F021BED0EF08F02150FE
:1011920008E12028D8A0D0EF08F0D2EF08F0DFEF66
:1011A20008F0000E216E2068000E0F6E000E106E09
:1011B200000E116E000E126EDFEF08F021BEECEF92
:1011C20008F0215006E12004D8B0EAEF08F0ECEF75
:1011D20008F0FCEF08F0000E216E000E206E000EEB
:1011E2000F6E000E106E000E116E000E126E000ECB
:1011F2001F6EFCEF08F020C026F026A003EF09F0D6
:1012020005EF09F008EF09F0118E0BEF09F0119EBE
:101212000BEF09F0D8902630126E1F5012120FC039
:101222000FF010C010F011C011F012C012F01AEF3E
:1012320009F01200096E0950D8B422EF09F024EF28
:1012420009F046EF09F004BE2BEF09F029EF09F08F
:1012520046EF09F001C005F002C006F003C007F036
:1012620004C008F0051E061E071E081E052A000EF1
:1012720006220722082205C00BF006C00CF007C0A8
:101282000DF008C00EF050EF09F001C00BF002C0E3
:101292000CF003C00DF004C00EF050EF09F0015045
:1012A200021003100410D8A459EF09F05BEF09F003
:1012B20067EF09F0000E016E000E026E000E036E63
:1012C200000E046E08EF0AF008EF0AF0960E0A6E9E
:1012D20073EF09F00A2AD8900E320D320C320B321B
:1012E20073EF09F0000E0B14056E000E0C14066E5F
:1012F200000E0D14076EFE0E0E14086E0550061039
:1013020007100810D8A488EF09F08AEF09F06BEFF4
:1013120009F09AEF09F09AEF09F00A2A010E0B265A
:10132200000E0C220D220E22D8900E320D320C32FB
:101332000B32000E0B14056E000E0C14066E000E1E
:101342000D14076EFF0E0E14086E055006100710DE
:101352000810D8A4AFEF09F0B1EF09F08EEF09F051
:10136200BDEF09F0BDEF09F00A06D8900B360C3636
:101372000D360E36BDEF09F00DBEC2EF09F0C4EF17
:1013820009F0CEEF09F0020E0A60CAEF09F0CCEFC5
:1013920009F0B5EF09F0CEEF09F00AB0D3EF09F08A
:1013A200D5EF09F0D8EF09F00D9ED8EF09F0D890EB
:1013B2000A320AC005F0066A076A086A05C008F020
:1013C200076A066A056A05500B1206500C1207508E
:1013D2000D1208500E120950D8B4F2EF09F0F4EFD2
:1013E20009F0FEEF09F004BEFBEF09F0F9EF09F096
:1013F200FEEF09F00E8EFEEF09F00BC001F00CC0FB
:1014020002F00DC003F00EC004F008EF0AF0120063
:10141200310E4818D8A410EF0AF012EF0AF02DEF9F
:101422000AF0000E476E010E466E44044510D8A421
:101432001DEF0AF01FEF0AF0CBEF0AF07B0E026EEF
:10144200080E036EC0EC0DF0000E456E000E446EE9
:10145200CBEF0AF0CBEF0AF0320E4818D8A434EFE3
:101462000AF036EF0AF051EF0AF0000E476E020E54
:10147200466E44044510D8A441EF0AF043EF0AF047
:10148200CBEF0AF0580E026E080E036EC0EC0DF0A0
:10149200000E456E000E446ECBEF0AF0CBEF0AF061
:1014A200330E4818D8A458EF0AF05AEF0AF075EF35
:1014B2000AF0000E476E030E466E44044510D8A48F
:1014C20065EF0AF067EF0AF0CBEF0AF0890E026EC1
:1014D200080E036EC0EC0DF0000E456E000E446E59
:1014E200CBEF0AF0CBEF0AF0340E4818D8A47CEF09
:1014F2000AF07EEF0AF099EF0AF0000E476E040E32
:10150200466E44044510D8A489EF0AF08BEF0AF026
:10151200CBEF0AF06B0E026E080E036EC0EC0DF0FC
:10152200000E456E000E446ECBEF0AF0CBEF0AF0D0
:10153200350E4818D8A4A0EF0AF0A2EF0AF0BDEFCA
:101542000AF0000E476E000E466E44044510D8A401
:10155200ADEF0AF0AFEF0AF0CBEF0AF0820E026EA7
:10156200080E036EC0EC0DF0000E456E000E446EC8
:10157200CBEF0AF0CBEF0AF0000E476E000E466E7C
:10158200CBEF0AF0CBEF0AF0CBEF0AF0CBEF0AF089
:10159200CBEF0AF046C001F047C002F032EC0CF08B
:1015A2001200620ED36E9492949482948292180ED8
:1015B200BB6E000E956E040EBA6E800E3C6E250E4A
:1015C2003D6E000E3E6E000E3F6E8FEC0CF0730E01
:1015D200026E080E036EC0EC0DF0FEEC0DF0030E71
:1015E2000B6E620E0C6E080E0D6E010E9CEC0DF071
:1015F200000E0B6E4D0E0C6E080E0D6E020E9CEC64
:101602000DF0000E026E190E016EDCEC0CF00AEF0A
:101612000BF0000E456E000E446E9EAA13EF0BF007
:1016220015EF0BF01DEF0BF0AECF48F0000E456E3C
:10163200010E446E1DEF0BF082A022EF0BF024EF9F
:101642000BF05BEF0BF00D0EBE6E0C0EBD6E0D0EB1
:10165200906E0C0E976E000E026E010E016EDCECA7
:101662000CF044044510D8A439EF0BF03BEF0BF01B
:1016720047EF0BF0340E026E080E036EC0EC0DF055
:10168200000E456E000E446E47EF0BF0030E0B6E1C
:10169200420E0C6E080E0D6E010E9CEC0DF0000E4B
:1016A2000B6E130E0C6E080E0D6E020E9CEC0DF0FE
:1016B2007BEF0BF0030E0B6E240E0C6E080E0D6EFC
:1016C200010E9CEC0DF0000E0B6E010E0C6E080E5E
:1016D2000D6E020E9CEC0DF0BE680C0EBD6E906895
:1016E2000C0E976E000E026E010E016EDCEC0CF019
:1016F2007BEF0BF0000E026E010E016EDCEC0CF0C3
:1017020009EC0AF00AEF0BF00AEF0BF000EF00F021
:10171200033404340A6E0A50D8A492EF0BF094EF0B
:101722000BF0A0EF0BF0000E016E000E026E000E29
:10173200036E000E046E31EF0CF031EF0CF001C0BD
:1017420005F002C006F003C007F004C008F0200E46
:10175200B0EF0BF0D8900832073206320532E82E8D
:10176200ABEF0BF00550096E038EFF0E0116FF0E54
:101772000216FF0E0316000E0416960E0A5E0ABE2D
:10178200C7EF0BF0C5EF0BF0EBEF0BF00A50800A3E
:10179200970FD8B0CFEF0BF0D1EF0BF0DFEF0BF0DC
:1017A200000E016E000E026E000E036E000E046E3D
:1017B20031EF0CF031EF0CF0DFEF0BF0D890043288
:1017C2000332023201320A3EDFEF0BF015EF0CF06A
:1017D20015EF0CF01F0E0A64F1EF0BF0F3EF0BF0B4
:1017E20009EF0CF0000E016E000E026E000E036E89
:1017F200000E046E31EF0CF031EF0CF009EF0CF03B
:10180200D89001360236033604360A0609EF0CF088
:101812000A50D8A40FEF0CF011EF0CF001EF0CF00E
:1018220015EF0CF015EF0CF00950D8B41BEF0CF0CB
:101832001DEF0CF027EF0CF0041E031E021E016CBC
:10184200000E02220322042227EF0CF001C001F055
:1018520002C002F003C003F004C004F031EF0CF048
:10186200120001500210D8A439EF0CF03BEF0CF03B
:1018720041EF0CF08C908C928C968C948EEF0CF045
:1018820001040210D8A448EF0CF04AEF0CF050EF1C
:101892000CF08C808C928C868C948EEF0CF0020E65
:1018A20001180210D8A458EF0CF05AEF0CF060EFB8
:1018B2000CF08C908C828C968C848EEF0CF0030E44
:1018C20001180210D8A468EF0CF06AEF0CF070EF68
:1018D2000CF08C808C928C968C848EEF0CF0040E23
:1018E20001180210D8A478EF0CF07AEF0CF080EF18
:1018F2000CF08C908C828C868C948EEF0CF08C90F9
:101902008C928C968C948EEF0CF08EEF0CF08EEF06
:101912000CF08EEF0CF08EEF0CF01200010E0F01A6
:101922005D6F948C948E3CC001F03DC002F03EC0CD
:1019320003F03FC004F0010E1BEC09F001C013F0EC
:1019420002C014F003C015F004C016F0000E0F6EB2
:10195200240E106EF40E116E470E126E0BEC07F091
:101962000FC028F010C029F011C02AF012C02BF0CD
:10197200000E2C6E000E2D6E800E2E6EBF0E2F6E80
:1019820049EC04F028C040F029C041F02AC042F0DE
:101992002BC043F040C001F041C002F042C003F04E
:1019A20043C004F089EC0BF00150AF6E200EAC6E18
:1019B200900EAB6E1200000E046E000E036E08EF66
:1019C2000DF0000E066E000E056E065009E1510E76
:1019D200055CD8A0EFEF0CF0F1EF0CF0F5EF0CF096
:1019E20004EF0DF004EF0DF0054A062A065009E156
:1019F200510E055CD8A000EF0DF002EF0DF0F5EFEF
:101A02000CF004EF0DF0034A042A08EF0DF0035026
:101A1200015C04500258D8B011EF0DF013EF0DF035
:101A2200E2EF0CF015EF0DF01200000E046E000E46
:101A3200036E42EF0DF0000E066E000E056E0650AC
:101A420009E1510E055CD8A029EF0DF02BEF0DF046
:101A52002FEF0DF03EEF0DF03EEF0DF0054A062A96
:101A6200065009E1510E055CD8A03AEF0DF03CEFAB
:101A72000DF02FEF0DF03EEF0DF0034A042A42EF76
:101A82000DF00350015C04500258D8B04BEF0DF03A
:101A92004DEF0DF01CEF0DF04FEF0DF01200086E40
:101AA20008C007F0F00E07168A500F0B07108A6E57
:101AB2008A808A8200F08A92000E026E010E016E06
:101AC20016EC0DF008C007F0073AF00E07168A5020
:101AD2000F0B07108A6E8A8200F08A92000E026E45
:101AE200030E016E16EC0DF01200086E08C007F02E
:101AF200F00E07168A500F0B07108A6E8A908A82A0
:101B020000F08A92000E026E010E016E16EC0DF0CC
:101B120008C007F0073AF00E07168A500F0B07109D
:101B22008A6E8A8200F08A92000E026E030E016EA5
:101B320016EC0DF012000E6E000E0F6E020E0E600D
:101B4200A5EF0DF0A7EF0DF0B0EF0DF00B500F0B5E
:101B520080090F6E0F5076EC0DF0B9EF0DF00B50BF
:101B62000F0BC0090F6E0F5076EC0DF0B9EF0DF0B0
:101B72000CC009F00DC00AF0DFEC0DF01200CEEF40
:101B82000DF002C0F6FF03C0F7FF0800F5502AEC83
:101B92000EF0024A032ACEEF0DF002C0F6FF03C098
:101BA200F7FF0800F5500009D8A4DAEF0DF0DCEFDA
:101BB2000DF0C2EF0DF0DEEF0DF01200EDEF0DF0C3
:101BC20009C0F6FF0AC0F7FF0800F55050EC0DF00F
:101BD200094A0A2AEDEF0DF009C0F6FF0AC0F7FF25
:101BE2000800F5500009D8A4F9EF0DF0FBEF0DF055
:101BF200E1EF0DF0FDEF0DF01200000E936E000EFE
:101C0200026E0F0E016E16EC0DF0020E76EC0DF068
:101C1200280E76EC0DF0010E76EC0DF00C0E76EC43
:101C22000DF0060E76EC0DF01200720EF66E1C0E22
:101C3200F76E000EF86E0900F5CF48F0476A466A63
:101C4200456A446A000EF86E080EF76E0001D2EF84
:101C52000AF0016E2DEF0EF09EA832EF0EF034EF77
:101C62000EF02DEF0EF036EF0EF001C0ADFF1200B8
:011C72003041
:020000040020DA
:08000000FFFFFFFFFFFFFFFF00
:020000040030CA
:0E00000000285F3CFFD385FF0FC00FE00F40CC
:00000001FF
